{
  "_format": "hh-sol-artifact-1",
  "contractName": "WavePortal",
  "sourceName": "contracts/WavePortal.sol",
  "abi": [
    {
      "inputs": [],
      "stateMutability": "nonpayable",
      "type": "constructor"
    },
    {
      "inputs": [
        {
          "internalType": "address",
          "name": "addr",
          "type": "address"
        }
      ],
      "name": "getPointsForAddress",
      "outputs": [
        {
          "internalType": "uint256",
          "name": "",
          "type": "uint256"
        }
      ],
      "stateMutability": "view",
      "type": "function"
    },
    {
      "inputs": [],
      "name": "getTotalWaves",
      "outputs": [
        {
          "internalType": "uint256",
          "name": "",
          "type": "uint256"
        }
      ],
      "stateMutability": "view",
      "type": "function"
    },
    {
      "inputs": [
        {
          "internalType": "address",
          "name": "addr",
          "type": "address"
        }
      ],
      "name": "getWavesForAddress",
      "outputs": [
        {
          "internalType": "uint256",
          "name": "",
          "type": "uint256"
        }
      ],
      "stateMutability": "view",
      "type": "function"
    },
    {
      "inputs": [],
      "name": "wave",
      "outputs": [],
      "stateMutability": "nonpayable",
      "type": "function"
    }
  ],
  "bytecode": "0x60806040523480156200001157600080fd5b506200004160405180606001604052806026815260200162000e84602691396200004760201b620005331760201c565b620001db565b620000e7816040516024016200005e919062000154565b6040516020818303038152906040527f41304fac000000000000000000000000000000000000000000000000000000007bffffffffffffffffffffffffffffffffffffffffffffffffffffffff19166020820180517bffffffffffffffffffffffffffffffffffffffffffffffffffffffff8381831617835250505050620000ea60201b60201c565b50565b60008151905060006a636f6e736f6c652e6c6f679050602083016000808483855afa5050505050565b6000620001208262000178565b6200012c818562000183565b93506200013e81856020860162000194565b6200014981620001ca565b840191505092915050565b6000602082019050818103600083015262000170818462000113565b905092915050565b600081519050919050565b600082825260208201905092915050565b60005b83811015620001b457808201518184015260208101905062000197565b83811115620001c4576000848401525b50505050565b6000601f19601f8301169050919050565b610c9980620001eb6000396000f3fe608060405234801561001057600080fd5b506004361061004c5760003560e01c806302f81891146100515780636fe15b44146100815780639a2cdc081461008b578063d7dae55b146100a9575b600080fd5b61006b60048036038101906100669190610886565b6100d9565b6040516100789190610a20565b60405180910390f35b6100896101a1565b005b610093610420565b6040516100a09190610a20565b60405180910390f35b6100c360048036038101906100be9190610886565b61046b565b6040516100d09190610a20565b60405180910390f35b600061015a6040518060400160405280601981526020017f416464726573732025732068617320256420706f696e7473210000000000000081525083600160008673ffffffffffffffffffffffffffffffffffffffff1673ffffffffffffffffffffffffffffffffffffffff168152602001908152602001600020546105cc565b600160008373ffffffffffffffffffffffffffffffffffffffff1673ffffffffffffffffffffffffffffffffffffffff168152602001908152602001600020549050919050565b60016000808282546101b39190610a57565b925050819055506101e0604051806060016040528060228152602001610c4260229139336000544261066b565b6001600260003373ffffffffffffffffffffffffffffffffffffffff1673ffffffffffffffffffffffffffffffffffffffff16815260200190815260200160002060008282546102309190610a57565b925050819055506000600a600054600260003373ffffffffffffffffffffffffffffffffffffffff1673ffffffffffffffffffffffffffffffffffffffff16815260200190815260200160002054426102899190610aad565b6102939190610aad565b61029d9190610b50565b141561039f5760018060003373ffffffffffffffffffffffffffffffffffffffff1673ffffffffffffffffffffffffffffffffffffffff16815260200190815260200160002060008282546102f29190610a57565b9250508190555061039a6040518060600160405280603a8152602001610c08603a9139600160003373ffffffffffffffffffffffffffffffffffffffff1673ffffffffffffffffffffffffffffffffffffffff16815260200190815260200160002054600260003373ffffffffffffffffffffffffffffffffffffffff1673ffffffffffffffffffffffffffffffffffffffff1681526020019081526020016000205461070d565b61041e565b61041d6040518060400160405280601381526020017f596f752077617665642025642074696d65732100000000000000000000000000815250600260003373ffffffffffffffffffffffffffffffffffffffff1673ffffffffffffffffffffffffffffffffffffffff168152602001908152602001600020546107ac565b5b565b60006104636040518060400160405280601681526020017f5765206861766520256420746f74616c207761766573000000000000000000008152506000546107ac565b600054905090565b60006104ec6040518060400160405280601a81526020017f416464726573732025732077617665642025642074696d65732100000000000081525083600260008673ffffffffffffffffffffffffffffffffffffffff1673ffffffffffffffffffffffffffffffffffffffff168152602001908152602001600020546105cc565b600260008373ffffffffffffffffffffffffffffffffffffffff1673ffffffffffffffffffffffffffffffffffffffff168152602001908152602001600020549050919050565b6105c9816040516024016105479190610906565b6040516020818303038152906040527f41304fac000000000000000000000000000000000000000000000000000000007bffffffffffffffffffffffffffffffffffffffffffffffffffffffff19166020820180517bffffffffffffffffffffffffffffffffffffffffffffffffffffffff8381831617835250505050610848565b50565b6106668383836040516024016105e493929190610928565b6040516020818303038152906040527f07c81217000000000000000000000000000000000000000000000000000000007bffffffffffffffffffffffffffffffffffffffffffffffffffffffff19166020820180517bffffffffffffffffffffffffffffffffffffffffffffffffffffffff8381831617835250505050610848565b505050565b610707848484846040516024016106859493929190610966565b6040516020818303038152906040527fdaa394bd000000000000000000000000000000000000000000000000000000007bffffffffffffffffffffffffffffffffffffffffffffffffffffffff19166020820180517bffffffffffffffffffffffffffffffffffffffffffffffffffffffff8381831617835250505050610848565b50505050565b6107a7838383604051602401610725939291906109e2565b6040516020818303038152906040527f969cdd03000000000000000000000000000000000000000000000000000000007bffffffffffffffffffffffffffffffffffffffffffffffffffffffff19166020820180517bffffffffffffffffffffffffffffffffffffffffffffffffffffffff8381831617835250505050610848565b505050565b61084482826040516024016107c29291906109b2565b6040516020818303038152906040527f9710a9d0000000000000000000000000000000000000000000000000000000007bffffffffffffffffffffffffffffffffffffffffffffffffffffffff19166020820180517bffffffffffffffffffffffffffffffffffffffffffffffffffffffff8381831617835250505050610848565b5050565b60008151905060006a636f6e736f6c652e6c6f679050602083016000808483855afa5050505050565b60008135905061088081610bf0565b92915050565b60006020828403121561089857600080fd5b60006108a684828501610871565b91505092915050565b6108b881610ae1565b82525050565b60006108c982610a3b565b6108d38185610a46565b93506108e3818560208601610b1d565b6108ec81610bdf565b840191505092915050565b61090081610b13565b82525050565b6000602082019050818103600083015261092081846108be565b905092915050565b6000606082019050818103600083015261094281866108be565b905061095160208301856108af565b61095e60408301846108f7565b949350505050565b6000608082019050818103600083015261098081876108be565b905061098f60208301866108af565b61099c60408301856108f7565b6109a960608301846108f7565b95945050505050565b600060408201905081810360008301526109cc81856108be565b90506109db60208301846108f7565b9392505050565b600060608201905081810360008301526109fc81866108be565b9050610a0b60208301856108f7565b610a1860408301846108f7565b949350505050565b6000602082019050610a3560008301846108f7565b92915050565b600081519050919050565b600082825260208201905092915050565b6000610a6282610b13565b9150610a6d83610b13565b9250827fffffffffffffffffffffffffffffffffffffffffffffffffffffffffffffffff03821115610aa257610aa1610b81565b5b828201905092915050565b6000610ab882610b13565b9150610ac383610b13565b925082821015610ad657610ad5610b81565b5b828203905092915050565b6000610aec82610af3565b9050919050565b600073ffffffffffffffffffffffffffffffffffffffff82169050919050565b6000819050919050565b60005b83811015610b3b578082015181840152602081019050610b20565b83811115610b4a576000848401525b50505050565b6000610b5b82610b13565b9150610b6683610b13565b925082610b7657610b75610bb0565b5b828206905092915050565b7f4e487b7100000000000000000000000000000000000000000000000000000000600052601160045260246000fd5b7f4e487b7100000000000000000000000000000000000000000000000000000000600052601260045260246000fd5b6000601f19601f8301169050919050565b610bf981610ae1565b8114610c0457600080fd5b5056fe436f6e6772617473212121204e6f7720796f75206861766520256420706f696e747320616e6420796f752077617665642025642074696d6573212573206a757374207761766564207769746820256420746f74616c2077617665732ea264697066735822122043d078e9e1cbdeb887c13f71702ed786df50bba48c40cfbaefb9ec620cf75d9d64736f6c6343000804003357656c636f6d6520746f207468652077316c64726162623174205761766520506f7274616c21",
  "linkReferences": {},
  "deployedLinkReferences": {}
}