{
  "_format": "hh-sol-artifact-1",
  "contractName": "WavePortal2",
  "sourceName": "contracts/WavePortal2.sol",
  "abi": [
    {
      "inputs": [],
      "stateMutability": "payable",
      "type": "constructor"
    },
    {
      "anonymous": false,
      "inputs": [
        {
          "indexed": true,
          "internalType": "address",
          "name": "_user",
          "type": "address"
        },
        {
          "indexed": false,
          "internalType": "uint256",
          "name": "_pointsEarned",
          "type": "uint256"
        },
        {
          "indexed": false,
          "internalType": "uint256",
          "name": "_pointsTotal",
          "type": "uint256"
        }
      ],
      "name": "NewPoints",
      "type": "event"
    },
    {
      "anonymous": false,
      "inputs": [
        {
          "indexed": true,
          "internalType": "address",
          "name": "_from",
          "type": "address"
        },
        {
          "indexed": false,
          "internalType": "uint256",
          "name": "_timestamp",
          "type": "uint256"
        },
        {
          "indexed": false,
          "internalType": "string",
          "name": "_message",
          "type": "string"
        }
      ],
      "name": "NewWave",
      "type": "event"
    },
    {
      "inputs": [],
      "name": "getAllWaves",
      "outputs": [
        {
          "components": [
            {
              "internalType": "address",
              "name": "userAddress",
              "type": "address"
            },
            {
              "internalType": "uint256",
              "name": "timestamp",
              "type": "uint256"
            },
            {
              "internalType": "string",
              "name": "message",
              "type": "string"
            }
          ],
          "internalType": "struct WavePortal2.WaveLog[]",
          "name": "",
          "type": "tuple[]"
        }
      ],
      "stateMutability": "view",
      "type": "function"
    },
    {
      "inputs": [
        {
          "internalType": "address",
          "name": "addr",
          "type": "address"
        }
      ],
      "name": "getPointsForAddress",
      "outputs": [
        {
          "internalType": "uint256",
          "name": "",
          "type": "uint256"
        }
      ],
      "stateMutability": "view",
      "type": "function"
    },
    {
      "inputs": [],
      "name": "getTotalWaves",
      "outputs": [
        {
          "internalType": "uint256",
          "name": "",
          "type": "uint256"
        }
      ],
      "stateMutability": "view",
      "type": "function"
    },
    {
      "inputs": [
        {
          "internalType": "address",
          "name": "addr",
          "type": "address"
        }
      ],
      "name": "getWavesForAddress",
      "outputs": [
        {
          "components": [
            {
              "internalType": "address",
              "name": "userAddress",
              "type": "address"
            },
            {
              "internalType": "uint256",
              "name": "timestamp",
              "type": "uint256"
            },
            {
              "internalType": "string",
              "name": "message",
              "type": "string"
            }
          ],
          "internalType": "struct WavePortal2.WaveLog[]",
          "name": "",
          "type": "tuple[]"
        }
      ],
      "stateMutability": "view",
      "type": "function"
    },
    {
      "inputs": [
        {
          "internalType": "uint256",
          "name": "start",
          "type": "uint256"
        },
        {
          "internalType": "uint256",
          "name": "count",
          "type": "uint256"
        }
      ],
      "name": "getWavesSlice",
      "outputs": [
        {
          "components": [
            {
              "internalType": "address",
              "name": "userAddress",
              "type": "address"
            },
            {
              "internalType": "uint256",
              "name": "timestamp",
              "type": "uint256"
            },
            {
              "internalType": "string",
              "name": "message",
              "type": "string"
            }
          ],
          "internalType": "struct WavePortal2.WaveLog[]",
          "name": "",
          "type": "tuple[]"
        }
      ],
      "stateMutability": "view",
      "type": "function"
    },
    {
      "inputs": [
        {
          "internalType": "string",
          "name": "_message",
          "type": "string"
        }
      ],
      "name": "wave",
      "outputs": [],
      "stateMutability": "nonpayable",
      "type": "function"
    }
  ],
  "bytecode": "0x60806040526200003360405180606001604052806022815260200162001c36602291396200003960201b62000cf71760201c565b620001cd565b620000d98160405160240162000050919062000146565b6040516020818303038152906040527f41304fac000000000000000000000000000000000000000000000000000000007bffffffffffffffffffffffffffffffffffffffffffffffffffffffff19166020820180517bffffffffffffffffffffffffffffffffffffffffffffffffffffffff8381831617835250505050620000dc60201b60201c565b50565b60008151905060006a636f6e736f6c652e6c6f679050602083016000808483855afa5050505050565b600062000112826200016a565b6200011e818562000175565b93506200013081856020860162000186565b6200013b81620001bc565b840191505092915050565b6000602082019050818103600083015262000162818462000105565b905092915050565b600081519050919050565b600082825260208201905092915050565b60005b83811015620001a657808201518184015260208101905062000189565b83811115620001b6576000848401525b50505050565b6000601f19601f8301169050919050565b611a5980620001dd6000396000f3fe608060405234801561001057600080fd5b50600436106100625760003560e01c806302f8189114610067578063288b2e7e14610097578063449d46c0146100c75780639a2cdc08146100e3578063bd43a90814610101578063d7dae55b1461011f575b600080fd5b610081600480360381019061007c91906110ff565b61014f565b60405161008e9190611555565b60405180910390f35b6100b160048036038101906100ac9190611169565b610217565b6040516100be91906113dc565b60405180910390f35b6100e160048036038101906100dc9190611128565b6104a6565b005b6100eb6109c5565b6040516100f89190611555565b60405180910390f35b610109610a16565b60405161011691906113dc565b60405180910390f35b610139600480360381019061013491906110ff565b610b67565b60405161014691906113dc565b60405180910390f35b60006101d06040518060400160405280601981526020017f416464726573732025732068617320256420706f696e7473210000000000000081525083600160008673ffffffffffffffffffffffffffffffffffffffff1673ffffffffffffffffffffffffffffffffffffffff16815260200190815260200160002054610d90565b600160008373ffffffffffffffffffffffffffffffffffffffff1673ffffffffffffffffffffffffffffffffffffffff168152602001908152602001600020549050919050565b6060600080549050828461022b9190611667565b111561026c576040517f08c379a0000000000000000000000000000000000000000000000000000000008152600401610263906114f5565b60405180910390fd5b60008267ffffffffffffffff8111156102ae577f4e487b7100000000000000000000000000000000000000000000000000000000600052604160045260246000fd5b6040519080825280602002602001820160405280156102e757816020015b6102d4610f93565b8152602001906001900390816102cc5790505b50905060005b8385101561049b576000858154811061032f577f4e487b7100000000000000000000000000000000000000000000000000000000600052603260045260246000fd5b90600052602060002090600302016040518060600160405290816000820160009054906101000a900473ffffffffffffffffffffffffffffffffffffffff1673ffffffffffffffffffffffffffffffffffffffff1673ffffffffffffffffffffffffffffffffffffffff168152602001600182015481526020016002820180546103b8906117a7565b80601f01602080910402602001604051908101604052809291908181526020018280546103e4906117a7565b80156104315780601f1061040657610100808354040283529160200191610431565b820191906000526020600020905b81548152906001019060200180831161041457829003601f168201915b5050505050815250508282806104469061180a565b93508151811061047f577f4e487b7100000000000000000000000000000000000000000000000000000000600052603260045260246000fd5b6020026020010181905250846104949061180a565b94506102ed565b819250505092915050565b600060405180606001604052803373ffffffffffffffffffffffffffffffffffffffff168152602001428152602001838152509050600260003373ffffffffffffffffffffffffffffffffffffffff1673ffffffffffffffffffffffffffffffffffffffff16815260200190815260200160002081908060018154018082558091505060019003906000526020600020906003020160009091909190915060008201518160000160006101000a81548173ffffffffffffffffffffffffffffffffffffffff021916908373ffffffffffffffffffffffffffffffffffffffff1602179055506020820151816001015560408201518160020190805190602001906105b1929190610fca565b505050600081908060018154018082558091505060019003906000526020600020906003020160009091909190915060008201518160000160006101000a81548173ffffffffffffffffffffffffffffffffffffffff021916908373ffffffffffffffffffffffffffffffffffffffff16021790555060208201518160010155604082015181600201908051906020019061064d929190610fca565b5050503373ffffffffffffffffffffffffffffffffffffffff167f5f7e16dc676677766a70e9c5628aa6c54ddb8b6e5188e2ae1e1f17f1ffbea7164284604051610698929190611570565b60405180910390a26000600260003373ffffffffffffffffffffffffffffffffffffffff1673ffffffffffffffffffffffffffffffffffffffff16815260200190815260200160002080549050905060008080549050905060018060003373ffffffffffffffffffffffffffffffffffffffff1673ffffffffffffffffffffffffffffffffffffffff168152602001908152602001600020600082825461073f9190611667565b925050819055503373ffffffffffffffffffffffffffffffffffffffff167f22eb3e067b58f70b2a9b1f01feba064322fa48d7d71c2bf5344758599377ee3f60018060003373ffffffffffffffffffffffffffffffffffffffff1673ffffffffffffffffffffffffffffffffffffffff168152602001908152602001600020546040516107cd9291906113fe565b60405180910390a26000655af3107a40009050600160003373ffffffffffffffffffffffffffffffffffffffff1673ffffffffffffffffffffffffffffffffffffffff168152602001908152602001600020548161082b91906116bd565b905061086c6040518060400160405280600d81526020017f7072697a65416d6f756e743a200000000000000000000000000000000000000081525082610e2f565b478111156108af576040517f08c379a00000000000000000000000000000000000000000000000000000000081526004016108a690611535565b60405180910390fd5b60003373ffffffffffffffffffffffffffffffffffffffff16826040516108d5906113c7565b60006040518083038185875af1925050503d8060008114610912576040519150601f19603f3d011682016040523d82523d6000602084013e610917565b606091505b505090508061095b576040517f08c379a000000000000000000000000000000000000000000000000000000000815260040161095290611515565b60405180910390fd5b6109bd6040518060600160405280603a81526020016119ea603a9139600160003373ffffffffffffffffffffffffffffffffffffffff1673ffffffffffffffffffffffffffffffffffffffff1681526020019081526020016000205486610ecb565b505050505050565b6000610a0b6040518060400160405280601681526020017f5765206861766520256420746f74616c20776176657300000000000000000000815250600080549050610e2f565b600080549050905090565b60606000805480602002602001604051908101604052809291908181526020016000905b82821015610b5e57838290600052602060002090600302016040518060600160405290816000820160009054906101000a900473ffffffffffffffffffffffffffffffffffffffff1673ffffffffffffffffffffffffffffffffffffffff1673ffffffffffffffffffffffffffffffffffffffff16815260200160018201548152602001600282018054610acd906117a7565b80601f0160208091040260200160405190810160405280929190818152602001828054610af9906117a7565b8015610b465780601f10610b1b57610100808354040283529160200191610b46565b820191906000526020600020905b815481529060010190602001808311610b2957829003601f168201915b50505050508152505081526020019060010190610a3a565b50505050905090565b6060600260008373ffffffffffffffffffffffffffffffffffffffff1673ffffffffffffffffffffffffffffffffffffffff168152602001908152602001600020805480602002602001604051908101604052809291908181526020016000905b82821015610cec57838290600052602060002090600302016040518060600160405290816000820160009054906101000a900473ffffffffffffffffffffffffffffffffffffffff1673ffffffffffffffffffffffffffffffffffffffff1673ffffffffffffffffffffffffffffffffffffffff16815260200160018201548152602001600282018054610c5b906117a7565b80601f0160208091040260200160405190810160405280929190818152602001828054610c87906117a7565b8015610cd45780601f10610ca957610100808354040283529160200191610cd4565b820191906000526020600020905b815481529060010190602001808311610cb757829003601f168201915b50505050508152505081526020019060010190610bc8565b505050509050919050565b610d8d81604051602401610d0b9190611427565b6040516020818303038152906040527f41304fac000000000000000000000000000000000000000000000000000000007bffffffffffffffffffffffffffffffffffffffffffffffffffffffff19166020820180517bffffffffffffffffffffffffffffffffffffffffffffffffffffffff8381831617835250505050610f6a565b50565b610e2a838383604051602401610da893929190611449565b6040516020818303038152906040527f07c81217000000000000000000000000000000000000000000000000000000007bffffffffffffffffffffffffffffffffffffffffffffffffffffffff19166020820180517bffffffffffffffffffffffffffffffffffffffffffffffffffffffff8381831617835250505050610f6a565b505050565b610ec78282604051602401610e45929190611487565b6040516020818303038152906040527f9710a9d0000000000000000000000000000000000000000000000000000000007bffffffffffffffffffffffffffffffffffffffffffffffffffffffff19166020820180517bffffffffffffffffffffffffffffffffffffffffffffffffffffffff8381831617835250505050610f6a565b5050565b610f65838383604051602401610ee3939291906114b7565b6040516020818303038152906040527f969cdd03000000000000000000000000000000000000000000000000000000007bffffffffffffffffffffffffffffffffffffffffffffffffffffffff19166020820180517bffffffffffffffffffffffffffffffffffffffffffffffffffffffff8381831617835250505050610f6a565b505050565b60008151905060006a636f6e736f6c652e6c6f679050602083016000808483855afa5050505050565b6040518060600160405280600073ffffffffffffffffffffffffffffffffffffffff16815260200160008152602001606081525090565b828054610fd6906117a7565b90600052602060002090601f016020900481019282610ff8576000855561103f565b82601f1061101157805160ff191683800117855561103f565b8280016001018555821561103f579182015b8281111561103e578251825591602001919060010190611023565b5b50905061104c9190611050565b5090565b5b80821115611069576000816000905550600101611051565b5090565b600061108061107b846115c5565b6115a0565b90508281526020810184848401111561109857600080fd5b6110a3848285611765565b509392505050565b6000813590506110ba816119bb565b92915050565b600082601f8301126110d157600080fd5b81356110e184826020860161106d565b91505092915050565b6000813590506110f9816119d2565b92915050565b60006020828403121561111157600080fd5b600061111f848285016110ab565b91505092915050565b60006020828403121561113a57600080fd5b600082013567ffffffffffffffff81111561115457600080fd5b611160848285016110c0565b91505092915050565b6000806040838503121561117c57600080fd5b600061118a858286016110ea565b925050602061119b858286016110ea565b9150509250929050565b60006111b18383611359565b905092915050565b6111c281611717565b82525050565b6111d181611717565b82525050565b60006111e282611606565b6111ec8185611629565b9350836020820285016111fe856115f6565b8060005b8581101561123a578484038952815161121b85826111a5565b94506112268361161c565b925060208a01995050600181019050611202565b50829750879550505050505092915050565b61125581611753565b82525050565b600061126682611611565b6112708185611645565b9350611280818560208601611774565b611289816118e0565b840191505092915050565b600061129f82611611565b6112a98185611656565b93506112b9818560208601611774565b6112c2816118e0565b840191505092915050565b60006112da602683611656565b91506112e5826118f1565b604082019050919050565b60006112fd601a83611656565b915061130882611940565b602082019050919050565b6000611320602483611656565b915061132b82611969565b604082019050919050565b600061134360008361163a565b915061134e826119b8565b600082019050919050565b600060608301600083015161137160008601826111b9565b50602083015161138460208601826113a9565b506040830151848203604086015261139c828261125b565b9150508091505092915050565b6113b281611749565b82525050565b6113c181611749565b82525050565b60006113d282611336565b9150819050919050565b600060208201905081810360008301526113f681846111d7565b905092915050565b6000604082019050611413600083018561124c565b61142060208301846113b8565b9392505050565b600060208201905081810360008301526114418184611294565b905092915050565b600060608201905081810360008301526114638186611294565b905061147260208301856111c8565b61147f60408301846113b8565b949350505050565b600060408201905081810360008301526114a18185611294565b90506114b060208301846113b8565b9392505050565b600060608201905081810360008301526114d18186611294565b90506114e060208301856113b8565b6114ed60408301846113b8565b949350505050565b6000602082019050818103600083015261150e816112cd565b9050919050565b6000602082019050818103600083015261152e816112f0565b9050919050565b6000602082019050818103600083015261154e81611313565b9050919050565b600060208201905061156a60008301846113b8565b92915050565b600060408201905061158560008301856113b8565b81810360208301526115978184611294565b90509392505050565b60006115aa6115bb565b90506115b682826117d9565b919050565b6000604051905090565b600067ffffffffffffffff8211156115e0576115df6118b1565b5b6115e9826118e0565b9050602081019050919050565b6000819050602082019050919050565b600081519050919050565b600081519050919050565b6000602082019050919050565b600082825260208201905092915050565b600081905092915050565b600082825260208201905092915050565b600082825260208201905092915050565b600061167282611749565b915061167d83611749565b9250827fffffffffffffffffffffffffffffffffffffffffffffffffffffffffffffffff038211156116b2576116b1611853565b5b828201905092915050565b60006116c882611749565b91506116d383611749565b9250817fffffffffffffffffffffffffffffffffffffffffffffffffffffffffffffffff048311821515161561170c5761170b611853565b5b828202905092915050565b600061172282611729565b9050919050565b600073ffffffffffffffffffffffffffffffffffffffff82169050919050565b6000819050919050565b600061175e82611749565b9050919050565b82818337600083830152505050565b60005b83811015611792578082015181840152602081019050611777565b838111156117a1576000848401525b50505050565b600060028204905060018216806117bf57607f821691505b602082108114156117d3576117d2611882565b5b50919050565b6117e2826118e0565b810181811067ffffffffffffffff82111715611801576118006118b1565b5b80604052505050565b600061181582611749565b91507fffffffffffffffffffffffffffffffffffffffffffffffffffffffffffffffff82141561184857611847611853565b5b600182019050919050565b7f4e487b7100000000000000000000000000000000000000000000000000000000600052601160045260246000fd5b7f4e487b7100000000000000000000000000000000000000000000000000000000600052602260045260246000fd5b7f4e487b7100000000000000000000000000000000000000000000000000000000600052604160045260246000fd5b6000601f19601f8301169050919050565b7f6765745761766573536c6963653a20737461727420616e6420636f756e74206960008201527f6e76616c69640000000000000000000000000000000000000000000000000000602082015250565b7f4661696c656420746f207061796f757420746865207072697a65000000000000600082015250565b7f4e6f7420656e6f756768206d6f6e657920746f207061796f757420746865207060008201527f72697a6500000000000000000000000000000000000000000000000000000000602082015250565b50565b6119c481611717565b81146119cf57600080fd5b50565b6119db81611749565b81146119e657600080fd5b5056fe436f6e6772617473212121204e6f7720796f75206861766520256420706f696e747320616e6420796f752077617665642025642074696d657321a2646970667358221220161e55e1036dcced1e471eaa1df64bb4f0fad09bd7c7dc96ab543117afc5069b64736f6c6343000804003357656c636f6d6520746f207468652077316c64726162623174205761766520203221",
  "linkReferences": {},
  "deployedLinkReferences": {}
}